:020000040000FA
:040000008A11FD2F35
:100F50004030831603138F009B0183120313850116
:100F60008601831603138501013086000F3083123A
:100F70000313970006309200FF308316031392008C
:100F80008312031395019601121508309500023063
:100F9000F6004530F500A930F400F40BCD2FF50B29
:100FA000CD2FF60BCD2FD42F83120313061CD92F70
:100FB000DA2FD42F233095000330F6008A30F50065
:100FC0005530F400F40BE22FF50BE22FF60BE22F75
:100FD000E92F08308312031395000330F6008A309E
:100FE000F5005530F400F40BF32FF50BF32FF60B4F
:100FF000F32FFA2FD42F8A11002883018A11A82FEA
:04400E00502FFC3FF4
:00000001FF
